:040000001CEF0AF0F7
:10030000000F000F000F000F000B000B000B000A86
:1003100000090008000700060006000600030003AD
:100320000002000100000000000C000D000F000C96
:10033000000D000F000F000F000F000F000D000E4A
:10034000000F000E000F000F000F000F00FFFF1541
:100350005BB9D010A08007AB280064E71E41717D17
:1003600000C682554F0C9745B82DFC9780A1046AB2
:10037000DF3F065B4F666D7D077F6F7003C403D15F
:1003800003160400B6EC09F0010E016E160EB7EC70
:1003900008F00DC008F00EC009F0000E0B6E0A0E3A
:1003A0000A6E95EC09F008C012F009C013F0710E46
:1003B0001224F66E030E1320F76E0800F550126E2D
:1003C000136A000E046E0A0E036E0DC001F00EC01B
:1003D00002F049EC09F001C008F002C009F0000E7B
:1003E0000B6E0A0E0A6E95EC09F008C014F009C0F5
:1003F00015F0710E1424F66E030E1520F76E08002A
:10040000F550146E156A000E046E640E036E0DC076
:1004100001F00EC002F049EC09F001C008F002C082
:1004200009F0000E0B6E0A0E0A6E95EC09F008C07A
:1004300016F009C017F0710E1624F66E030E172081
:10044000F76E0800F550166E176AE80E0D5C030E85
:100450000E58D8A005D0010E016E150EB7EC08F0AD
:10046000000E196E000E186E19BE08D0195005E165
:10047000150E185CD8B0120001D01200000E1B6ED1
:10048000000E1A6E1BBE06D01B5021E1070E1A5C2F
:10049000D8B01DD01AC00FF012C010F013C011F068
:1004A0000F2A03D01134113210320F2EFBD710A0B7
:1004B00006D0010E016E1A50B7EC08F005D0000E00
:1004C000016E1A50B7EC08F01A4A1B2ADBD7000E4F
:1004D0001B6E000E1A6E1BBE06D01B5023E1070ECA
:1004E0001A5CD8B01FD01AC00FF014C010F015C09D
:1004F00011F00F2A03D01134113210320F2EFBD716
:1005000010A007D0010E016E1A50070FB7EC08F0CB
:1005100006D0000E016E1A50070FB7EC08F01A4A09
:100520001B2AD9D7000E1B6E000E1A6E1BBE06D0FA
:100530001B5023E1070E1A5CD8B01FD01AC00FF071
:1005400016C010F017C011F00F2A03D01134113269
:1005500010320F2EFBD710A007D0010E016E1A50DB
:100560000E0FB7EC08F006D0000E016E1A500E0FF9
:10057000B7EC08F01A4A1B2AD9D7184A192A19BE0B
:100580007DD7195001E174D71200D9D01B5065E115
:10059000120E1A5CD8B061D01A4A1B2A7F0E36168A
:1005A000F80E3716FF0E4C160F0E4D16D8901A3453
:1005B000F66E1B34F76E010EF626030EF7220900C5
:1005C000F5CF1DF00900F5CF1EF0070ED8901D36AF
:1005D0001E36E82EFBD71D5036121E5037121AC099
:1005E0001DF01BC01EF0D8901D361E36260E1D268F
:1005F000000E1E22010E1D24F66E030E1E20F76E45
:100600000900F5CF1FF00900F5CF20F00C0ED890AF
:100610001F362036E82EFBD71F504C1220504D12AB
:10062000030E08EC08F00009D8B405D0000E1B6ECC
:10063000010E1A6E12000E0E08EC08F00009D8B474
:1006400005D0000E1B6E010E1A6E12001AC00DF0BE
:100650001BC00EF00AEC06F07AD0000E1B6E120ED4
:1006600069D01A501B10D8B462D01A06D8A01B0645
:100670007F0E3616F80E3716FF0E4C160F0E4D165F
:10068000D8901A34F66E1B34F76E010EF626030E60
:10069000F7220900F5CF1DF00900F5CF1EF0070E77
:1006A000D8901D361E36E82EFBD71D5036121E5030
:1006B00037121AC01DF01BC01EF0D8901D361E3612
:1006C000260E1D26000E1E22010E1D24F66E030EA0
:1006D0001E20F76E0900F5CF1FF00900F5CF20F0BE
:1006E0000C0ED8901F362036E82EFBD71F504C1228
:1006F00020504D12030E08EC08F00009D8B405D0C4
:10070000000E1B6E010E1A6E12000E0E08EC08F0A1
:100710000009D8B405D0000E1B6E010E1A6E12002F
:100720001AC00DF01BC00EF00AEC06F010D0000E3F
:100730001B6E000E1A6E0BD0EFEC09F008D01C50A7
:10074000000AD8B48ED7010AD8B420D7F5D71AC07A
:100750001AF01BC01BF01200BFD0000E236E000E5B
:10076000226E23BE08D0235005E1040E225CD8B0CF
:10077000C2D001D0C0D0D8902234F66E2334F76EA8
:100780007B0EF626030EF7220900F5501C5C0900CB
:10079000F5501D58D8A00DD0810EF66E030EF76EE1
:1007A0001C500900F51837E11D500900F518D8A4B0
:1007B00032D0D8902234F66E2334F76E7B0EF626B4
:1007C000030EF7220900F5CF12F00A00F5CF13F05F
:1007D00049EC08F0D8902234F66E2334F76E7B0E85
:1007E000F626030EF7220900F5CF0DF00A00F5CF2B
:1007F0000EF0C2EC01F0D8902234F66E2334F76E7E
:100800007B0EF626030EF7220900F5CF1CF00A0036
:10081000F5CF1DF01200224A232A23BEACD7235065
:100820006AE1A3D7000E236E030E226E23BE63D0AF
:10083000D8902234F66E2334F76E7B0EF626030E24
:10084000F7221C500900F55C1D500900F558D8A08E
:100850000DD07B0EF66E030EF76E1C500900F518D6
:1008600037E11D500900F518D8A432D0D8902234B1
:10087000F66E2334F76E7B0EF626030EF722090080
:10088000F5CF12F00A00F5CF13F049EC08F0D8903C
:100890002234F66E2334F76E7B0EF626030EF72213
:1008A0000900F5CF0DF00A00F5CF0EF0C2EC01F013
:1008B000D8902234F66E2334F76E7B0EF626030EA4
:1008C000F7220900F5CF1CF00A00F5CF1DF0120049
:1008D0002206D8A02306AAD71EC020F01FC021F0F0
:1008E0002150000AD8A407D02050000AD8B49AD7C3
:1008F000010AD8B432D71CC01CF01DC01DF0120074
:100900000A0E296E000E2B6E120E2A6E030E2F6E2B
:10091000C40E2E6E000E286E000E276E000E026EA4
:10092000140E016ED6EC09F0E9EC08F02C0E0C6EFA
:10093000000E0D6E30EC0AF0100E2C1803E1100EB4
:100940002D18D8A4EFEC09F0A7EC07F00009D8A403
:10095000EFEC09F02EC00DF02FC00EF0C2EC01F04C
:100960002EC012F02FC013F049EC08F0B0EC06F0E6
:10097000296E7CD02EC01CF02FC01DF0000E1F6E03
:10098000010E1E6E50EC05F00AD02EC01CF02FC0D8
:100990001DF0000E1F6E000E1E6E50EC05F01CC008
:1009A0002EF01DC02FF0E2D72EC01CF02FC01DF07E
:1009B000010E1E6E82EC08F008D02EC01CF02FC075
:1009C0001DF0000E1E6E82EC08F01CC02EF01DC043
:1009D0002FF0CCD72AC01AF02BC01BF0010E1C6ED2
:1009E000C5EC02F01AC02AF01BC02BF0030E026EF9
:1009F000E80E016ED6EC09F02EC00DF02FC00EF0FF
:100A0000C2EC01F0B3D72AC01AF02BC01BF0000EC5
:100A10001C6EC5EC02F01AC02AF01BC02BF0030EAE
:100A2000026EE80E016ED6EC09F02EC00DF02FC05C
:100A30000EF0C2EC01F09AD72EC01CF02FC01DF0B2
:100A4000000E1F6E010E1E6EACEC03F00AD02EC01D
:100A50001CF02FC01DF0000E1F6E000E1E6EACECC1
:100A600003F01CC02EF01DC02FF080D72950010AC2
:100A7000D8B480D7030AD8B488D7010AD8B494D799
:100A8000070AD8B49AD7010AD8B4A4D7030AD8B4AD
:100A9000BAD7010AD8B4D0D70F0AD8B4D8D766D7F6
:100AA0000F0ED8901E361F36E82EFBD73282010E6D
:100AB00008EC08F00009D8B405D0000E1D6E010E38
:100AC0001C6E12003592020E08EC08F00009D8B432
:100AD00005D0000E1D6E010E1C6E1200379C030E19
:100AE00008EC08F00009D8B405D0000E1D6E010E08
:100AF0001C6E12001E5036121F503712378A030E1A
:100B000008EC08F00009D8B405D0000E1D6E010EE7
:100B10001C6E1200378C030E08EC08F00009D8B4E4
:100B200005D0000E1D6E010E1C6E1200000E026E2E
:100B3000020E016ED6EC09F0230E0C6E000E0D6E47
:100B400072EC09F00009D8B405D0000E1D6E010E3C
:100B50001C6E120023502410D8B4E8D73292010E34
:100B600008EC08F00009D8B405D0000E1D6E010E87
:100B70001C6E1200250E036E000E046E130E42EC66
:100B800007F00009D8B405D0000E1D6E010E1C6ED2
:100B90001200379E030E08EC08F00009D8B405D007
:100BA000000E1D6E010E1C6E120025C020F026C026
:100BB00021F0070E226ED89021322032222EFBD750
:100BC00020C025F021C026F0B20E2526020E2622D6
:100BD000390E255C040E2658D8B017D06B0E255C54
:100BE000030E2658D8A011D025C012F026C013F04D
:100BF00049EC08F025C00DF026C00EF0C2EC01F063
:100C000025C01CF026C01DF012001CC01CF01DC029
:100C10001DF01200B6EC09F00DC008F00EC009F08E
:100C2000000E0B6E0A0E0A6E95EC09F008C012F069
:100C300009C013F0710E1224F66E030E1320F76E26
:100C40000800F550126E136A000E046E0A0E036E51
:100C50000DC001F00EC002F049EC09F001C008F02F
:100C600002C009F0000E0B6E0A0E0A6E95EC09F038
:100C700008C014F009C015F0710E1424F66E030EAE
:100C80001520F76E0800F550146E156A000E176EE9
:100C9000000E166E17BE08D0175005E10E0E165C3A
:100CA000D8B0120001D01200000E196E000E186E9E
:100CB00019BE06D0195021E1070E185CD8B01DD01E
:100CC00018C00FF012C010F013C011F00F2A03D09B
:100CD0001134113210320F2EFBD710A006D0010EA6
:100CE000016E1850B7EC08F005D0000E016E1850D8
:100CF000B7EC08F0184A192ADBD7000E196E000E5F
:100D0000186E19BE06D0195023E1070E185CD8B032
:100D10001FD018C00FF014C010F015C011F00F2A2A
:100D200003D01134113210320F2EFBD710A007D090
:100D3000010E016E1850070FB7EC08F006D0000E38
:100D4000016E1850070FB7EC08F0184A192AD9D7C6
:100D5000164A172A17BEA8D7175001E19FD71200CD
:100D600080B010D0020E026E040E016EBA0EE82E94
:100D7000FED7012EFCD7022EFAD700D080B002D0C9
:100D8000010E120080B210D0020E026E040E016E2F
:100D9000BA0EE82EFED7012EFCD7022EFAD700D0CD
:100DA00080B202D0020E120081B010D0020E026E8C
:100DB000040E016EBA0EE82EFED7012EFCD7022ECD
:100DC000FAD700D081B002D0030E120081BA10D041
:100DD000020E026E040E016EBA0EE82EFED7012E30
:100DE000FCD7022EFAD700D081BA02D0040E12002E
:100DF00086B010D0020E026E040E016EBA0EE82EFE
:100E0000FED7012EFCD7022EFAD700D086B002D032
:100E1000050E120086B210D0020E026E040E016E94
:100E2000BA0EE82EFED7012EFCD7022EFAD700D03C
:100E300086B202D0060E120086B410D0020E026EE8
:100E4000040E016EBA0EE82EFED7012EFCD7022E3C
:100E5000FAD700D086B402D0070E120086B610D0A2
:100E6000020E026E040E016EBA0EE82EFED7012E9F
:100E7000FCD7022EFAD700D086B602D0080E120098
:100E8000000E1200096EC580C5B0FED727EC0AF02F
:100E9000200E1AEC09F00009D8B402D0010E12009D
:100EA00027EC0AF009501AEC09F027EC0AF0C58289
:100EB000C5B2FED727EC0AF0210E1AEC09F027EC98
:100EC0000AF00EEC0AF00A6E27EC0AF0C59AC58803
:100ED000C5B8FED727EC0AF00EEC0AF00B6E27EC33
:100EE0000AF0C58AC588C5B8FED727EC0AF0C584C4
:100EF000C5B4FED727EC0AF00A50056E066A03C097
:100F0000D9FF04C0DAFF05C0DEFF06C0DDFF03C065
:100F1000D9FF04C0DAFFDE50DD6EDF6A03C0D9FFFF
:100F200004C0DAFFDECF05F0DDCF06F00B50076E10
:100F3000086A055007120650081203C0D9FF04C002
:100F4000DAFF07C0DEFF08C0DDFF000E1200000E52
:100F5000146E110E146401D018D01450020D4D0EF1
:100F6000F324F66E030EF420F76E1450020D300ECB
:100F7000F324D96E000EF420DA6E0900F5CFDEFFFF
:100F80000800F5CFDDFF142AE4D730C012F031C0DD
:100F900013F03090000E08EC08F00009D8B402D02D
:100FA000010E1200010E146E110E146401D00AD04D
:100FB000145008EC08F00009D8B402D0010E120059
:100FC000142AF2D7010E1210306E1350316E000E3B
:100FD00008EC08F00009D8B402D0010E1200000E8F
:100FE000026E140E016ED6EC09F006D0000E026EF1
:100FF000020E016ED6EC09F0120E0C6E000E0D6E94
:1010000072EC09F012501310D8B4F0D7000E120091
:10101000076E0750020D300EF324D96E000EF42037
:10102000DA6EDECF03F0DDCF04F004C003F0046A13
:101030000350056E0750020D300EF324D96E000EDA
:10104000F420DA6EDF50066EC580C5B0FED727ECFF
:101050000AF0200E1AEC09F00009D8B402D0010EF3
:10106000120027EC0AF007501AEC09F027EC0AF0FE
:1010700005501AEC09F027EC0AF006501AEC09F0BA
:1010800027EC0AF0C584C5B4FED727EC0AF0000EA1
:1010900012004E0E1224186EFD0E1320196E35929A
:1010A000020E08EC08F00009D8A41200000E341655
:1010B000FE0E3516000E146E020E156E18C016F0D8
:1010C00019C017F01450161215501712165034127A
:1010D00017503512020E08EC08F00009D8A41200CF
:1010E000000E026E020E016ED6EC09F01A0E0C6EA6
:1010F000000E0D6E72EC09F00009D8A412001A500F
:101100001B10ECD71E04D8A415D0380E1C5C040E9E
:101110001D58D8B027D01C4A1D2A1CC012F01DC073
:1011200013F049EC08F01CC00DF01DC00EF0C2EC2D
:1011300001F018D01E50D8A415D06C0E1C5C030E04
:101140001D58D8A00FD01C06D8A01D061CC012F038
:101150001DC013F049EC08F01CC00DF01DC00EF0CE
:10116000C2EC01F01CC01CF01DC01DF01200076E87
:10117000170E076401D012000738E8461F0B026EF5
:10118000036A600E0224046E0F0E0320056E07C072
:1011900002F0070E0216010E036E022A02D0D8904A
:1011A0000336022EFCD70350066E0150D8B407D088
:1011B00004C0D9FF05C0DAFF0650DF121200065046
:1011C000FF0A026E04C0D9FF05C0DAFF0250DF1625
:1011D0001200720ED36E0F015A690F015B690F0185
:1011E0005C69000E0F015D6F880E0F01596F360E9E
:1011F0000F01586F3F0EC16E030E926E210E936E5B
:10120000180E946E9868000E806E000E816E000EAF
:10121000826EF294F29E080ED56E000ED76E000E0E
:10122000D66ED58E800E016E080EFFEC09F03F0ED3
:10123000C86E1200026E02C0C9FFC6AE02D0FF0E19
:101240001200C6500F0B080AD8B40FD0C6500F0BAF
:101250000B0AD8B40AD0C6889EA6FED7C7A4C7B0CA
:1012600002D0FE0E1200000E1200C6500F0B080A2C
:10127000D8B405D0C6500F0B0B0AD8A41200C7B0C3
:10128000FED727EC0AF0C5AC02D0FE0E1200000E0D
:101290001200000E066E000E056E03500410D8B446
:1012A0001CD0010E076E04D0D89003360436072AEE
:1012B00004AEFAD7D890053606360350015C0450C8
:1012C0000258D8A005D00350015E0450025A058090
:1012D000D89004320332072EEDD705C001F006C0C6
:1012E00002F01200100E036E000E046E130E42EC9C
:1012F00007F00009D8B402D0010E1200200E10161B
:10130000000E111610501110D8B402D0010E01D0E9
:10131000000E0E6E0F6A0CC0D9FF0DC0DAFF0EC0B2
:10132000DEFF0FC0DDFF000E12000A500B10D8B414
:1013300018D0010E0C6E04D0D8900A360B360C2A49
:101340000BAEFAD70A50085C0B500958D8A004D04D
:101350000A50085E0B50095AD8900B320A320C2EF4
:10136000F1D708C008F009C009F01200000E046EA1
:10137000000E036E000E046E000E036E600E016E12
:101380000F0E026E04BE06D004500FE11C0E035C6B
:10139000D8B0120001C0D9FF02C0DAFF000EDF6E24
:1013A000014A022A034A042AEDD71200000E046EF5
:1013B000000E036E0FD0000E046E640E036E03D099
:1013C0000306D8A0040603500410D8A4F9D70106D8
:1013D000D8A0020601500210D8B41200ECD7606801
:1013E00061686268000E026E140E016ED6EC09F0A0
:1013F000000E606E000E616E000E626EF0D7026E1F
:101400003F0EC716000EC66E000EC56E0250C61205
:101410000150C71294869488C68A1200C6500F0BDA
:10142000080AD8B404D0C6500F0B0B0AD8B4C5862E
:10143000C7A0FED7C950120000EE30F0240EEE6AAD
:10144000E806FDE1000EF86E000180EF04F0C5CF64
:1014500001F01F0E0116D8A4FAD7C7A41200F7D7BF
:101460000CC003F00DC004F01C0E42EC07F012009B
:020000040020DA
:08000000FFFFFFFFFFFFFFFF00
:020000040030CA
:0A000000FF09191EFF8180FF01FFB8
:00000001FF
